S0150000547261666669636C69676874732E73726563C5
S11300000C942A000C9434000C9434000C943400A6
S11300100C9434000C9434000C9434000C9434008C
S11300200C9434000C9434000C9434000C9434007C
S11300300C9434000C9434000C9434000C9434006C
S11300400C9434000C9434000C9434000C9434005C
S11300500C94340011241FBECFE5D8E0DEBFCDBF21
S11300600E9436000C9465000C9400008FEF84BB52
S113007032E022E190E180E835BB4FEF50E762E0E7
S1130080415050406040E1F700C0000025BB4FEFF5
S113009050E762E0415050406040E1F700C000008A
S11300A095BB4FEF50E762E0415050406040E1F7AC
S11300B000C0000085BB4FEF51EE64E0415050405A
S11100C06040E1F700C00000D7CFF894FFCFF6
S9030000FC
